:020000040800F2
:1000000000000320B5020008015B0008035B000844
:10001000055B0008075B0008095B000800000000A2
:100020000000000000000000000000000B5B000862
:100030000D5B0008000000000F5B0008115B00086A
:100040002539000825390008253900082539000818
:100050002539000825390008155B000825390008F6
:1000600025390008253900082539000825390008F8
:1000700025390008253900082539000825390008E8
:1000800025390008253900082539000825390008D8
:1000900025390008253900082539000825390008C8
:1000A00025390008253900082539000825390008B8
:1000B00025390008253900082539000825390008A8
:1000C0002539000825390008253900082539000898
:1000D00025390008355B0008253900082539000856
:1000E0002539000825390008253900082539000878
:1000F0002539000825390008253900082539000868
:100100002539000825390008253900082539000857
:100110002539000825390008253900082539000847
:10012000415B0008253900082539000825390008F9
:100130002539000825390008253900082539000827
:100140002539000825390008253900082539000817
:100150002539000825390008295B000825390008E1
:1001600025390008253900082539000825390008F7
:10017000253900081D5B0008253900080000000033
:1001800025390008253900082539000825390008D7
:1001900025390008253900082539000825390008C7
:1001A00025390008253900082539000807B500F071
:1001B000F9F82E492E4A2F4B2F4C30480B60136014
:1001C0002F4DA84204D254F8045F40F8045BF7E7CF
:1001D00008682C49884203D111682B4A914200D00B
:1001E000FEE72A492A4A0B6013602A4B2A488342B9
:1001F00003D2002043F8040BF8E70B680BB914682E
:1002000004B1FEE700F0D0F8684601A900F0C2F89A
:10021000224D234BED1AAD101E46AC4204DA56F8BF
:10022000243098470134F8E71E4B1F4CE41AA41001
:1002300000251E46A54204DA56F8253098470135B8
:10024000F8E79DE8030005F03DF9184C184BE41A57
:100250000646A4101D46002C04DD013C55F8243050
:100260009847F8E7304600F073F800BF0000002020
:100270007C230020BABADECA8C7F00080000002070
:100280008023002078563412325476988023002040
:10029000A838002080230020AC3800204C03000840
:1002A0004C0300084C0300084C0300084C030008F2
:1002B0004C03000808B5FFF779FF00BEFEE71EF00B
:1002C000040F0CBFEFF30880EFF309807146124A68
:1002D000104700BEFEE700BEFEE71EF0040F0CBF95
:1002E000EFF30880EFF3098071460C4A104700BE17
:1002F000FEE71EF0040F0CBFEFF30880EFF3098058
:100300007146074A104700BEFEE700BEFEE700BE8A
:10031000FEE700BEFEE77047D3020008EF020008C8
:0403200007030008C7
:10032400907F00080000002080230020907F0008B8
:10033400000000100000001080230020AC380020D2
:08034400000000100000001091
:10035000FEE7000008B50C4B1A680AB90B4A1A6090
:100360001A680B49C31C23F0030313448B4206D9BC
:1003700006F032FF0C2303604FF0FF3008BD024946
:1003800010460B6008BD00BF84230020AC3800205D
:1003900000FC022001230360014B0B60704700BF8B
:1003A0000400002003F064BA03F082BA10B50446DA
:1003B00002F03AF84FF47A73B0FBF3F000F044FA2D
:1003C0004FF0FF302146002200F002FA002010BD5D
:1003D00008B5094B1A6842F400721A601A6842F4B0
:1003E00080621A60032000F0E1F90F20FFF7DEFFC2
:1003F00001F050F9002008BD003C0240024A136899
:1004000001331360704700BF8C230020014B186834
:10041000704700BF8C23002013B50190FFF7F6FF53
:100420000446FFF7F3FF019B001B9842F9D302B08B
:1004300010BD000010B50446002800F0918090F82F
:100440003D3003F0FF021BB980F83C2005F0B4FA00
:10045000022384F83D30434B5A6822F440325A60FC
:10046000596862680A435A60236821695A6822F40D
:1004700080725A605A6842EA01225A605A6822F031
:1004800040725A605968A2680A435A609A6822F416
:1004900000629A609968E2680A439A603249E26AA7
:1004A0008A420ED0996821F07061996099680A4378
:1004B0009A609A6822F040529A609968226B0A43C7
:1004C00006E09A6822F070629A609A6822F04052C0
:1004D0009A609A68A16922F002029A609A6842EAD8
:1004E00041029A60626A9AB15A6842F400625A60A4
:1004F0005A6822F460425A604FF4604191FAA1F1C7
:10050000A26A5868B1FA81F1013A8A40024302E0D6
:100510005A6822F400625A60DA6A22F47002DA62DF
:10052000226AD96A013A41EA0252DA629A68E169BA
:1005300022F400729A609A6842EA41229A609A68AC
:10054000616922F480629A609A6842EA81229A6024
:1005500000200123206484F83C0084F83D3010BD65
:10056000012010BD002301400100000F73B51346A8
:1005700090F83C200025012A04460E4601953CD007
:100580000168012280F83C204A68806B42F080625A
:100590004A608A6842F480728A60194AC263194AC2
:1005A0000264194A82644C31324600F00DFA12237B
:1005B00084F83D30236884F83C509A68D20705D50A
:1005C000986810F0405013D0002017E09A680F4947
:1005D00042F001029A600E4A1268B2FBF1F202EB9D
:1005E00042020192019A002AEAD0019A013AF8E700
:1005F0009A6842F080429A6000E0022002B070BD2A
:10060000430600085F0600086B06000840420F0022
:100610000C00002003689A6822F0010210B59A606D
:100620005A6822F080625A609A6822F48072044606
:100630009A60806B00F001FA012384F83D300020BD
:1006400010BD806B08B590F83D30252B0CBF3523CD
:10065000152380F83D3005F0DBF808BD704708B57C
:10066000806BFFF7FBFF08BD7047806B08B5042364
:1006700080F83D30036C43F002030364FFF7F4FF9E
:1006800008BD0000F7B50023019390F83C30012B22
:1006900063D00D688A680123092D80F83C30ACB224
:1006A00003680FD904EB4406DF681E3E4FF0070EC7
:1006B0000EFA06FE27EA0E07DF60DF68B2403A4313
:1006C000DA600DE01F6905EB450E072606FA0EF607
:1006D00027EA06061E611E6902FA0EF232431A610B
:1006E0004A68062A4FEA82010CD80A445E6B053A32
:1006F0001F21914026EA01015963596B94400C4334
:100700005C631AE00C2A0CD80A441E6B233A1F21A2
:10071000914026EA01011963196B94400C431C6354
:100720000BE00A44DE6A413A1F21914026EA0101AA
:10073000D962D96A94400C43DC62174A934204D0D0
:10074000002380F83C30184623E0122D07D1134ACD
:10075000536843F480035360F2E7022019E0104B22
:100760009D4201D0112DEBD10C494A689D4242F4C3
:1007700000024A60E4D10B4B0B4A1B68B3FBF2F258
:100780000A2353430193019B002BD9D0019B013BCA
:10079000F8E703B0F0BD00BF002001400023014096
:1007A000120000100C00002040420F00074AD368DE
:1007B00023F4E0631B041B0C43F0BF6343F40033DA
:1007C00000F0070043EA0023D360704700ED00E02B
:1007D000154BDB68C3F3022370B5C3F107051C1D7D
:1007E000042D28BF0425062C8CBF033B00230124C5
:1007F00004FA03F6AC40013C013E214099403240EE
:10080000002842EA01024FEA0212AFBF00F1604045
:1008100000F00F00054BD2B2A5BF00F56140D2B287
:100820001A5480F8002370BD00ED00E014ED00E0E4
:100830004109012300F01F00024A834042F82130A1
:10084000704700BF00E100E00138B0F1807F3FBF9A
:10085000064B074A5860F0213FBF82F82310002062
:100860000722986034BF1A600120704710E000E052
:1008700000ED00E010B5044668B1037903F0FF0213
:1008800013B9427105F00EF90223237100200123F0
:100890002061237110BD012010BD4379012B10B5DB
:1008A0004FF0020325D00371036801221C684271D6
:1008B0008A4022431A6059B919681A684C0714D53E
:1008C00002F03802382A10D15A6842F001020BE0D7
:1008D00019681A68490308D502F46012B2F5601F5E
:1008E00003D15A6842F002025A60012303710023C7
:1008F0004371184610BD4379012B70B54FF00203C8
:1009000016D004680371266840F6FE73934026EA09
:1009100003050AC90B4393402B4323602168C0237E
:10092000934021EA030323600123037100234371F1
:10093000184670BD13B5002400680194019011B9E8
:100940000199083101E0019914310A440192019A98
:100950000020136002B010BD30B500282FD0016810
:10096000184A8468022380F835300B681A404368BF
:100970001C43C3681C4303691C4343691C438369CC
:100980001C43C3691C43036A23431343426A042A7A
:1009900001BFC46A056B2C4323430B604B69042AD7
:1009A00023F0070343EA020304BF826A13434B6147
:1009B00001220023C36480F83520184630BD012091
:1009C00030BD00BF3F8010F030B590F83440012CAE
:1009D0004FF002042FD080F835400468012580F8DC
:1009E0003450256825F001052560256825F480250B
:1009F000256063608368402B0BBFA260A160E1604B
:100A0000E260236843F010032360236843F0080387
:100A10002360236843F004032360636943F0800389
:100A20006361236843F002032360236843F00103FA
:100A30002360002030BD204630BD026838B5136801
:100A400023F0010313600446FFF7E0FC054623682A
:100A5000186810F0010010D0FFF7D8FC401BB0F56B
:100A60007A7FF4D9E36C43F02003E364032000238E
:100A700084F8343084F8350038BD012384F834001C
:100A800084F8353038BD000070B50368A94DAB421D
:100A9000044616D9A84A5168703293420AD01832D7
:100AA000934209D0183293420CBF4FF400224FF00A
:100AB000007203E0082201E04FF400720A424CD1B8
:100AC000BDE09E4A934217D9D2F8481302F55672F8
:100AD00093420AD01832934209D0183293420CBF85
:100AE0004FF400224FF0007203E0082201E04FF4BF
:100AF00000720A4231D1BBE0914A9342A2F15802FE
:100B000015D95168703293420AD01832934209D0F5
:100B1000183293420CBF4FF400224FF0007203E0F2
:100B2000082201E04FF400720A4216D1B9E01168C0
:100B3000844A93420AD01832934209D01832934221
:100B40000CBF4FF400224FF0007203E0082201E0D6
:100B50004FF400720A4200F0BA801A6852076BD54F
:100B60001A68AB4222F004021A6013D9764A934203
:100B70000AD01832934209D01832934214BF4FF072
:100B800000734FF4002303E0082301E04FF40073E7
:100B9000694A2DE0694A934214D902F5567293428C
:100BA0000AD01832934209D01832934214BF4FF042
:100BB00000734FF4002303E0082301E04FF40073B7
:100BC0005D4A2AE05E4A934214D9183293420AD011
:100BD0001832934209D01832934214BF4FF0007379
:100BE0004FF4002303E0082301E04FF40073574A59
:100BF000D36013E0534A93420AD01832934209D08B
:100C00001832934214BF4FF000734FF4002303E0F7
:100C1000082301E04FF400734C4A9360E36C43F007
:100C20000103E364042384F83530002384F834306E
:100C3000A36C0BB1204698472368AB4215D93E4AB6
:100C40005168703293420AD01832934209D0183258
:100C500093420CBF4FF480324FF4800202E03C4AD2
:100C600000E040220A4248D1FEE3344A934215D9BB
:100C7000314A1168103293420AD01832934209D097
:100C8000183293420CBF4FF480324FF4800202E0DE
:100C90002F4A00E040220A422FD1E3E3284A934240
:100CA00015D92A4A5168703293420AD018329342B9
:100CB00009D0183293420CBF4FF480324FF48002B7
:100CC00002E0234A00E040220A4216D1C8E31F4A4C
:100CD0001168103293420AD01832934209D0183268
:100CE00093420CBF4FF480324FF4800202E0184A66
:100CF00000E040220A4200F0CA805A69160678D500
:100D00005A69AB4222F080025A6123D90E4A9342BB
:100D10000AD01832934209D0183293420CBF4FF4D4
:100D200080334FF4800302E0094B00E04023024A85
:100D30003CE000BF5864024000640240B8600240DA
:100D4000586002401060024070640240006002403F
:100D500001008000AB4A934213D902F556729342C8
:100D60000AD01832934209D0183293420CBF4FF484
:100D700080334FF4800302E0A34B00E04023A34AFA
:100D800028E0A34A934213D9183293420AD018326A
:100D9000934209D0183293420CBF4FF480334FF482
:100DA000800302E0984B00E040239A4AD36012E0AF
:100DB000994A93420AD01832934209D0183293428A
:100DC0000CBF4FF480334FF4800302E08E4B00E001
:100DD0004023904A9360E36C43F00203E3640423EE
:100DE00084F83530002384F83430A36C0BB12046EE
:100DF00098472368AB4216D9844A516870329342AF
:100E00000AD01832934209D0183293420CBF4FF4E3
:100E100080224FF0807203E0804A01E04FF480723C
:100E20000A424CD126E3774A934216D9774A116891
:100E3000103293420AD01832934209D018329342AA
:100E40000CBF4FF480224FF0807203E0734A01E040
:100E50004FF480720A4232D10AE36D4A934217D9A5
:100E60006C4A5168703293420AD01832934209D0CA
:100E7000183293420CBF4FF480224FF0807203E08F
:100E8000664A01E04FF480720A4218D1EEE223680C
:100E9000604A1168103293420AD01832934209D046
:100EA000183293420CBF4FF480224FF0807203E05F
:100EB0005A4A01E04FF480720A4200F0CD801A686D
:100EC00090076BD51A68AB4222F002021A6013D960
:100ED000534A93420AD01832934209D018329342AF
:100EE0000CBF4FF480234FF0807303E04B4B01E0C5
:100EF0004FF48073454A2DE0424A934214D902F5DB
:100F0000567293420AD01832934209D01832934253
:100F10000CBF4FF480234FF0807303E03F4B01E0A0
:100F20004FF48073394A2AE0394A934214D918326F
:100F300093420AD01832934209D0183293420CBF20
:100F40004FF480234FF0807303E0344B01E04FF403
:100F50008073304AD36013E02F4A93420AD018328C
:100F6000934209D0183293420CBF4FF480234FF0C4
:100F7000807303E0294B01E04FF48073254A9360AE
:100F8000E36C43F00403E364042384F83530002366
:100F900084F83430A36C0BB1204698472368AB42E9
:100FA00016D91A4A5168703293420AD018329342C5
:100FB00009D0183293420CBF4FF480124FF0806278
:100FC00003E0102201E04FF480620A425CD157E254
:100FD0000C4A934226D90D4A1168103293420AD026
:100FE0001832934209D0183293420CBF4FF480124A
:100FF0004FF0806203E0102201E04FF480620A4269
:1010000042D13BE2B860024001008000006402402F
:1010100058600240006002401060024004008000FE
:1010200070640240AB4A934217D9AB4A51687032A0
:1010300093420AD01832934209D0183293420CBF1F
:101040004FF480124FF0806203E0102201E04FF471
:1010500080620A4218D10FE223689F4A1168103259
:1010600093420AD01832934209D0183293420CBFEF
:101070004FF480124FF0806203E0102201E04FF441
:1010800080620A4200F09D801A68110740F1888052
:101090001A68520362D5AB4213D9904A93420AD0E0
:1010A0001832934209D0183293420CBF4FF4801388
:1010B0004FF0806303E0102301E04FF48063884A1F
:1010C0002DE0884A934214D902F5567293420AD011
:1010D0001832934209D0183293420CBF4FF4801358
:1010E0004FF0806303E0102301E04FF480637C4AFB
:1010F0002AE0784A934214D9183293420AD018321F
:10110000934209D0183293420CBF4FF480134FF032
:10111000806303E0102301E04FF480636E4AD360E4
:1011200013E0714A93420AD01832934209D0183220
:1011300093420CBF4FF480134FF0806303E0102301
:1011400001E04FF48063644A936023681A681603D1
:101150001FD51B6818031FD541231BE01A68D10552
:1011600003D41A6822F008021A60AB4240F2EB8006
:101170005A4A934200F0E2801832934200F0E08035
:10118000183293420CBF4FF480134FF08063544ADF
:10119000D360312384F83530236C0BB12046984757
:1011A0002368AB4201D94E4A08E04E4A934201D926
:1011B0004B4A08E0474A934204D9474A5168703283
:1011C00003E02368444A1168103293420AD018326F
:1011D000934209D0183293420CBF4FF400124FF0E3
:1011E000006203E0202201E04FF400620A4214BFD3
:1011F00001220022002A00F045811A68D20640F13F
:1012000041811A68560371D5AB4213D9334A9342D0
:101210000AD01832934209D0183293420CBF4FF4CF
:1012200000134FF0006303E0202301E04FF400635C
:101230002B4A2DE02B4A934214D902F55672934261
:101240000AD01832934209D0183293420CBF4FF49F
:1012500000134FF0006303E0202301E04FF400632C
:101260001F4A2AE01B4A934214D9183293420AD0EB
:101270001832934209D0183293420CBF4FF4001336
:101280004FF0006303E0202301E04FF40063124AB3
:10129000D36013E0144A93420AD01832934209D023
:1012A000183293420CBF4FF400134FF0006303E079
:1012B000202301E04FF40063074A936023681A6813
:1012C000100301D4636C32E01B68190340F1DA802B
:1012D0002CE000BF58600240006002407064024091
:1012E00000640240B8600240106002401A68D205F3
:1012F00003D41A6822F010021A60AB426CD9624A19
:10130000934264D01832934263D0183293420CBF98
:101310004FF400134FF000635C4AD360E36CE36466
:10132000112384F83530002384F83430E36B002B2C
:1013300000F0A8802046BDE870401847102326E73B
:101340004FF4806323E7524A934214D902F5567250
:1013500093420AD01832934209D0183293420CBFFC
:101360004FF480134FF0806303E0102301E04FF44B
:101370008063464A29E0474A934213D91832934280
:101380000AD01832934209D0183293420CBF4FF45E
:1013900080134FF0806303E0102301E04FF480637B
:1013A0003D4AF5E63D4A93420AD01832934209D0AD
:1013B000183293420CBF4FF480134FF0806303E068
:1013C000102301E04FF48063334A9360E1E6202369
:1013D000A2E74FF400639FE72D4A934214D902F528
:1013E000567293420AD01832934209D0183293426F
:1013F0000CBF4FF400134FF0006303E0202301E023
:101400004FF40063214A29E0224A934213D918324B
:1014100093420AD01832934209D0183293420CBF3B
:101420004FF400134FF0006303E0202301E04FF47A
:101430000063194A71E7194A93420AD0183293425D
:1014400009D0183293420CBF4FF400134FF00063E1
:1014500003E0202301E04FF400630F4A93605DE74F
:101460002368FDE42368E1E42368C5E42368DCE540
:101470002368B0E5236894E523689EE6236897E631
:10148000236890E670BD00BF7064024000640240B3
:10149000B8600240586002400060024010600240A4
:1014A0002DE9F3410F6800220123934003EA070569
:1014B0009D4240F0D2804C6824F0100CBCF1020F29
:1014C00014D14FEAD20E00EB8E0E02F00706DEF8C2
:1014D0002030B6004FF00F0808FA06F823EA080893
:1014E0000B69B34048EA0303CEF820304FEA420EBE
:1014F0000323066803FA0EF3DB4303EA060804F04D
:10150000030606FA0EF60CF1FF3C48EA0606BCF1AB
:10151000010F066011D8866803EA060CCE6806FA49
:101520000EF64CEA06068660466826EA050CC4F309
:10153000001696404CEA06064660C66803EA060CAA
:101540008B6803FA0EF64CEA0603C360E30040F131
:101550008480454B5E6C46F480465E645B6C22F092
:10156000030606F1804603F4804306F59C3601939A
:1015700002F0030C019BD6F808E04FEA8C0C0F2315
:1015800003FA0CF32EEA030E384B984226D003F5EB
:101590008063984224D003F58063984222D003F5FB
:1015A0008063984220D003F5806398421ED003F5F3
:1015B000806398421CD003F5806398421AD003F5EB
:1015C0008063984218D003F58063984216D003F5E3
:1015D000806398420CBF09230A2310E000230EE029
:1015E00001230CE002230AE0032308E0042306E0C1
:1015F000052304E0062302E0072300E0082303FAA2
:101600000CF343EA0E03DFF868E0B360DEF8003065
:10161000EE4314F4803F14BF2B433340CEF8003028
:10162000DEF80430DFF848E014F4003F14BF2B4329
:101630003340CEF80430DEF8083014F4801F14BFB5
:101640002B433340CEF80830DEF80C30A40254BFF0
:1016500006EA03051D43064BDD600132102A7FF4C4
:1016600023AF02B0BDE8F081003802400000024024
:10167000003C014002B909048161704708B5044B80
:101680005969084202D0586104F0B6F808BD00BF9D
:10169000003C014070472DE9F04106468AB0002821
:1016A00060D00323344680F87D3304F097FA54F871
:1016B000100B01F09EFC0FCC6D460FC50FCC0FC573
:1016C00023682B6006F1040898E80E00306801F0EA
:1016D0004FFC0021306801F092FC06F11004324604
:1016E00031460020012381F834004887013081F819
:1016F00035300F284FF0000381F83730CB630B648F
:101700008B6401F11C01EDD1D6F800E082F8D831EC
:1017100003F1400153870EEB8101013300270F2BAA
:1017200082F8D97182F8DB71C2F8E071C2F8E47115
:10173000C2F8EC714F6002F11C02E7D10FCC6D468C
:101740000FC50FCC0FC523682B6098E80E007046BC
:1017500001F096FC012386F87D33306802F00DF825
:10176000384600E001200AB0BDE8F08190F87C33F3
:10177000012B10B504460CD0012380F87C3300689F
:1017800001F0EFFF206801F02EFC002084F87C03BC
:1017900010BD022010BD2DE9F04F076887B0044648
:1017A000384602F022F8002840F02B82206801F031
:1017B000F0FF002800F02582206801F0EAFF820790
:1017C00048BF2368206844BF02225A6101F0E1FF4C
:1017D00010F400204DD0206801F0DFFF07F53066DF
:1017E0008046A2460025B8F1000F43D018F0010F43
:1017F00038D05FFA85FB2068594601F0DEFF10F013
:10180000010F814621D00123B3602369012B0CD144
:101810003369DAF8E021C3F31203D31ACAF8F031BE
:10182000DAF8E4311A44CAF8E4215946204604F0B3
:1018300066FA2169012908D13DB9D4F8EC3123B900
:10184000206804F5607201F0EFFF19F0080F04D072
:10185000204604F04DFA0823B36019F0100F1CBFA6
:101860001023B36001354FEA580820360AF11C0AEC
:10187000B9E70546206801F08CFF430340F1AA80D8
:10188000206801F092FF2646824607F51069002580
:10189000BAF1000F00F09E801AF0010F00F0938063
:1018A0005FFA85FB2068594601F090FF10F0010FA8
:1018B000804620D00122D7F8343802FA05F023EA16
:1018C0000003C7F834382369C9F80820934201BFE0
:1018D000326CF36B9B1833645946204604F018FAB7
:1018E0002169012907D135B9A36C23B9206804F512
:1018F000607201F099FF18F0080F1CBF0823C9F8A7
:10190000083018F0100F1CBF1023C9F8083018F069
:10191000400F1CBF4023C9F8083018F0020F1CBF4D
:101920000223C9F8083018F0800F4CD0B36CF26C69
:10193000D4F800C0C2EB0308F36B984528BF984663
:1019400008F10302042392FBF3F303930CF51063F5
:1019500003EB45130493049B039A9B699BB2934248
:101960000BD8B8F1000F2EDCDCF834280123AB4093
:1019700022EA0303CCF8343825E0F26CB36C9A42C7
:10198000EFD2002BEDD0C2EB0308F36BCDF814C0FF
:10199000984528BF984608F10302042392FBF3F30D
:1019A0000393237C009360461FFA88F3316C5A46F8
:1019B00001F037FD336CDDF814C043443364F36C3D
:1019C0004344F364C7E701354FEA5A0A1C3609F16C
:1019D00020095DE7206801F0DCFE00280CDAD7F86A
:1019E000043823F00103C7F80438204604F0B0F9A6
:1019F00023684FF000425A61206801F0CAFE0605D4
:101A00000AD5D7F80838D80702D5204604F09CF943
:101A100023684FF400625A61206801F0BAFEC104E5
:101A200042D507F500667368206823F001037360F0
:101A3000002101F0FBFA606807F510630022824282
:101A400006D0FF2199600132C3F808122033F6E76F
:101A50004FF0FF33B361F36943F00113F361E36ABD
:101A600053B1D6F8843043F00B03C6F88430736C5E
:101A700043F00B03736407E0736943F00B03736176
:101A8000336943F00B033361D7F800382068217CB9
:101A900023F4FE63C7F8003804F5607201F0C4FE59
:101AA00023684FF480525A61206801F072FE82046C
:101AB00022D5206801F09DFE2068C36823F470538E
:101AC000C36001F073FB236838B94FF400726261A0
:101AD000DA68E06042F4105206E00322E26040223D
:101AE0006261DA6842F4A052DA60204604F01CF920
:101AF00023684FF400525A61206801F04AFEC30681
:101B00003ED52268936923F010039361D7F82090A3
:101B1000C9F34343022B09F00F081AD147F6F072BC
:101B200009EA02023AB31C2606FB08464FEA1219DC
:101B30004A463846D6F8E41101F0A2FDD6F8E43161
:101B4000D6F8F0214B444A44C6F8E431C6F8F021F7
:101B500011E0062B0FD11C2606FB0846384604F57B
:101B60006071082201F08CFDD6F8F031C9F30A1932
:101B70004B44C6F8F0312268936943F01003936137
:101B8000206801F006FE070705D5204604F0C8F8D6
:101B9000236808225A61206801F0FBFDC60207D5C0
:101BA0002046E9B204F0DCF823684FF480125A6151
:101BB000206801F0EEFD800207D52046E9B204F06E
:101BC000CBF823684FF400125A61206801F0E1FD60
:101BD000410006D5204604F0C7F823684FF0804244
:101BE0005A61206801F0D5FD42070AD523685D6877
:101BF0006B0702D5204604F0BBF823685A681543EA
:101C00005D6007B0BDE8F08F90F87C33012B10B514
:101C1000044609D0012380F87C33006801F091FD6F
:101C2000002084F87C0310BD022010BD70B5CDB239
:101C300015F0800F04464FF01C0601F07F0015BF21
:101C400006FB004106FB0141343101F5EC71C0B2E5
:101C5000ED0908704D708A60CB7005B1C880022B09
:101C600004BF00230B7194F87C33012B09D00123AE
:101C700084F87C33206801F0B4FA002084F87C03F7
:101C800070BD022070BDCBB213F0800F10B54FF0C5
:101C90001C02044601F07F0015BF02FB004102FB5D
:101CA0000141343101F5EC71DB0908704B7094F897
:101CB0007C33012B09D0012384F87C33206801F0A8
:101CC000D1FA002084F87C0310BD022010BD38B585
:101CD000044601F07F051C2000FB0540C0F8EC31F4
:101CE0000023C0F8E421C0F8F03180F8D93180F841
:101CF000D8512369012B08BFC0F8E82194F87C2350
:101D0000012A13D01C21012201FB054184F87C2308
:101D100001F5EC71DAB2206815B901F0DAFA01E0E8
:101D200001F092FB002084F87C0338BD022038BD0E
:101D300001F07F011C2303FB0100B0F8F0017047A4
:101D400070B5044601F07F051C2000FB054000260D
:101D5000836401230264C66480F8353080F834500F
:101D6000236900F14001012B08BF4A6094F87C23ED
:101D7000012A12D01C21012201FB054184F87C2399
:101D80003431DAB2206815B901F0A3FA01E001F0AC
:101D90005BFB002084F87C0370BD022070BD38B569
:101DA000CBB213F0800F01F07F054FF01C0215BF7E
:101DB00002FB050102FB0101343101F5EC71012246
:101DC000DB09EDB28A700D704B7090F87C33934252
:101DD00004460FD080F87C23006801F061FC2DB927
:101DE0002068217C04F5607201F01EFD002084F85B
:101DF0007C0338BD022038BD38B5CBB213F0800F5C
:101E000005464FF01C0201F07F0015BF02FB005198
:101E100002FB0151343101F5EC71DB0900248C70B7
:101E200008704B7095F87C33012B09D0012385F89D
:101E30007C33286801F066FC85F87C43204638BD79
:101E4000022038BD70B50468606A19B940EA0243DF
:101E5000A36216E0A36A002600EB1343F0B24D1E06
:101E6000A84206F1010606DA403004EB8000406823
:101E700003EB1043F2E73F3104EB810443EA0243F2
:101E80006360002070BD0368002059627047000045
:101E90000368F7B50446D80703D4236899074CD4E0
:101EA00099E08A4B9A6802F00C02042A07D09A68DB
:101EB00002F00C02082A0BD15B685A0208D5834B4A
:101EC0001B689B03E9D56368002BE6D1012061E123
:101ED0007F4D00232B70FEF799FA06467B4B1B685B
:101EE0009F0308D5FEF792FA41F28833801B98428F
:101EF000F4D903204EE123792B70636873B1FEF7A8
:101F000085FA0546714B1B689E03C6D4FEF77EFA20
:101F100041F28833401B9842F4D9EAE7FEF776FA9B
:101F200005466A4B1B689803B7D5FEF76FFA41F276
:101F30008833401B9842F4D9DBE7644B9A6812F06F
:101F40000C0F07D09A6802F00C02082A16D15B68C1
:101F5000590213D45D4B1A68920702D5E268012A30
:101F6000B4D11968F82090FAA0F02269B0FA80F094
:101F700021F0F80182400A431A602CE0E268554BD8
:101F8000DAB101221A60FEF741FA05464F480368AC
:101F90009F0705D4FEF73AFA401B6428F6D9A8E754
:101FA0000268F82191FAA1F12369B1FA81F122F0D6
:101FB000F8028B40134303600DE01A60FEF726FA27
:101FC0000546424B1B689E0705D5FEF71FFA401BCE
:101FD0006428F6D98DE723681D0703D423685807C2
:101FE0004BD51FE062693C4B72B101221A60FEF7CB
:101FF0000DFA0546354B5B6F9907EFD4FEF706FAED
:10200000401B6428F6D974E71A60FEF7FFF905460D
:102010002E4B5B6F9A07E1D5FEF7F8F9401B642859
:10202000F6D966E7294B1A6C42F080521A641B6C91
:102030002A4A03F080530193019B136843F4807391
:102040001360FEF7E3F90546244B1B68DB0517D543
:10205000234D00232B70FEF7D9F906461B4B1B6F4F
:102060009F0713D4237A2B70A368FBB1FEF7CEF938
:102070000546164B1B6F9E0710D5A26992BB6EE0FA
:10208000FEF7C4F9401B6428DED932E7FEF7BEF93B
:1020900041F28833801B9842E0D92AE7FEF7B6F96F
:1020A00041F28833401B9842E3D922E7FEF7AEF9AC
:1020B0000546064B1B6F9807DFD5FEF7A7F941F2DF
:1020C0008833401B9842F4D913E700BF0038024020
:1020D0000238024000004742800E47420070004034
:1020E000703802402C4B9B6803F00C03082B3FF424
:1020F000EDAE2A4D0023022A2B603ED1FEF786F971
:1021000006462548036899012BD447F6C07797FA0D
:10211000A7F74FF44036B7FA87F796FAA6F64FF0CE
:102120007061B6FA86F691FAA1F1E369226AB1FA12
:1021300081F11A43636ABB401A43A36A5B08013BFF
:10214000B3401343E26A8A401343436001232B6088
:10215000FEF75CF90446104B1B689A0107D5002076
:1021600018E0FEF753F9801B6428CAD9C1E6FEF7D0
:102170004DF9001B6428EED9BBE6FEF747F904468B
:10218000054B1B689B01EAD5FEF740F9001B64284C
:10219000F6D9AEE603B0F0BD003802406000474219
:1021A0007F4B1A6802F00F02914270B504460D464B
:1021B00077D9CAB21A701B6803F00F038B4201D0A3
:1021C000012070BD01688B0741BF7648836823F00A
:1021D000F002A36844BF13438360CE070BD4216889
:1021E0004D0740F1CC806F48836823F4E052E368E8
:1021F00013438360C3E063686A4A012B03D112680A
:1022000012F4003F08E0991E0129126802D812F06A
:10221000007F01E012F0020FD2D062498A6822F0FA
:10222000030213438B60FEF7F1F86368012B054648
:102230000ED15C4B9B6803F00C03042BCFD0FEF750
:10224000E5F841F28833401B9842F2D9032070BD73
:10225000022B0DD1534B9B6803F00C03082BBED00F
:10226000FEF7D4F841F28833401B9842F2D9EDE7EB
:10227000032B10D14B4B9B68FEF7C8F841F2883313
:10228000401B9842F6D9E1E7FEF7C0F841F28833E7
:10229000401B9842DAD8434B9B6813F00C0FF3D1E4
:1022A0009DE70168880741BF3E48836823F0F0023C
:1022B000A36844BF13438360CA0709D4384BEAB20A
:1022C0001A701B6803F00F03AB427FF479AF86E707
:1022D0006368344A012B03D1126812F4003F08E00E
:1022E000991E0129126802D812F0007F01E012F055
:1022F000020F3FF465AF2B498A6822F003021343B3
:102300008B60FEF783F86368012B06460DD1254BE1
:102310009B6803F00C03042BD0D0FEF777F841F252
:102320008833801B9842F2D990E7022B0DD11D4BC8
:102330009B6803F00C03082BC0D0FEF767F841F24E
:102340008833801B9842F2D980E7032B11D1154BBB
:102350009B68FEF75BF841F28833801B9842F6D900
:1023600074E7FEF753F841F28833801B98423FF63A
:102370006DAF0C4B9B6813F00C0FF2D19EE70B076F
:1023800041BF084A2169936823F4604344BF43EA8C
:10239000C10393600F20FEF709F8002070BD00BF55
:1023A000003C02400038024010B51C4CA36803F00A
:1023B0000C03042B2ED0082B2ED1626802F03F03B1
:1023C000626847F6C07112F4800F626891FAA1F159
:1023D00047F6C07000EA020008BF114AB1FA81F165
:1023E00020FA01F00EBFB2FBF3F20E49B1FBF3F29B
:1023F00002FB00F3094A50684FF4403292FAA2F20D
:1024000000F44030B2FA82F2D04001304000B3FB19
:10241000F0F010BD034810BD014810BD0038024067
:102420000024F40000127A0008B5FFF7BDFF084B46
:10243000F0229B6892FAA2F203F0F003B2FA82F261
:10244000D340044AD35CD840034B186008BD00BF9A
:1024500000380240F07B00080C00002008B5FFF7B0
:10246000E3FF074B4FF4E0529B6892FAA2F203F4A9
:10247000E053B2FA82F2D340024AD35CD84008BD9E
:1024800000380240F07B000808B5FFF7CDFF074B8E
:102490004FF460429B6892FAA2F203F46043B2FAEE
:1024A00082F2D340024AD35CD84008BD00380240D3
:1024B000F07B0008F7B503689A07044605D1236846
:1024C00013F00C0F00F0D18056E0A14D00232B60DB
:1024D000FDF79CFF07469F4E33681B0106D5FDF7AD
:1024E00095FFC01B6428F6D903202EE12068C7079A
:1024F00013D547F6C07292FAA2F24FF0E041B2FA59
:1025000082F291FAA1F1A368B1FA81F103FA01F123
:10251000636893400B43C6F8843080071DD58D4E09
:102520004FF0E040D6F8841090FAA0F06368E268BB
:10253000B0FA80F09B0143EA026201F0E043C3403D
:1025400042EA0373C6F88430D6F88C30E26923F08F
:102550001F03013A1343C6F88C3001232B60FDF7AB
:1025600055FF05467B4B1B681901A8D4FDF74EFFAC
:10257000401B6428F6D9B7E7774D00232B60FDF7A1
:1025800045FF064673490B689B0000F1848026686E
:10259000770730D5D1F888304FF0E04292FAA2FCAC
:1025A00047F6C077BCFA8CFC97FAA7F74FF0706E2D
:1025B000B7FA87F79EFAAEFEBEFA8EFE92FAA2F244
:1025C0006069B2FA82F200FA0EFE206903F0E0437D
:1025D000B84023FA0CF393404EEA00000343C1F8DD
:1025E0008830D1F88C30226A23F4F853013A43EA58
:1025F0000223C1F88C3036072ED5564F4FF070624B
:10260000D7F8883092FAA2FE47F6C070BEFA8EFE66
:1026100090FAA0F0B0FA80F092FAA2F24FF0E04601
:10262000B2FA82F296FAA6F6A169B6FA86F601FA2D
:1026300006F6216903F07063814023FA0EF393409C
:1026400031430B43C7F88830D7F88C3023F440323D
:10265000636A1343C7F88C3001232B60FDF7D6FE65
:1026600005463C4B1B6898001CD523689A0663D529
:10267000384B1A6C42F080521A641B6C374A03F0D4
:1026800080530193019B136843F480731360FDF73B
:10269000BDFE054612E0FDF7B9FE801B64287FF6FB
:1026A00071AF21E7FDF7B2FE401B6428D9D91BE7C3
:1026B000FDF7ACFE401B64283FF616AF274B1B68A6
:1026C000D905F5D5234BA26A196F4A4012F4407F11
:1026D00032D01A6F224901250D6022F44070002586
:1026E00092070D6018670FD4A26A02F44073B3F525
:1026F000407F184B17D1996822F0704020F4407049
:1027000021F4F811014311E0FDF780FE0546114B5D
:102710001B6F9B07E8D4FDF779FE41F28833401B1D
:102720009842F4D9E0E6996821F4F8119960196F9C
:10273000C2F30B020A431A67206810F010001FBF93
:10274000084B94F82C201A60002003B0F0BD00BFA5
:102750006800474200380240700047420070004065
:10276000400E4742E0114742026838B5D36823F073
:10277000A003D3600446FDF749FE05462368DB68E5
:102780009B0607D4FDF742FE401BB0F57A7FF5D9D2
:10279000032038BD002038BD38B50368DA6852061A
:1027A000044601D5002038BD4FF0FF32DA60FDF756
:1027B0002DFE05462368DB685B06F3D4FDF726FE95
:1027C000401BB0F57A7FF5D9032038BD10B504461B
:1027D00000283DD0437F03F0FF0213B9027703F0D6
:1027E000D1F8022363772368CA225A6253225A62BD
:1027F0002046FFF7D1FF236820B1FF225A6204234D
:10280000637725E09A6822F4E00222F040029A60A1
:102810009968626811432269114362690A439A60A8
:10282000E2681A611A69A16842EA01421A61DA682B
:1028300022F08002DA601A6C22F480221A64196C89
:10284000A2690A431A64FF225A620123637710BD0A
:10285000012010BD0023092803D90A380133C0B272
:10286000F9E740EA0310C0B27047037F012B2DE95E
:10287000F04106460F464FF0020566D0012303776C
:1028800003684577087891F801808D789B68AAB92C
:1028900013F0400308BFCB70FFF7DCFF044640464F
:1028A000FFF7D8FF80462846FFF7D4FFFB7840EAC1
:1028B000034040EA044040EA08240BE013F04003E0
:1028C00008BFCB704FEA082848EA0044C87825437F
:1028D00045EA00443368CA225A6253225A6230469B
:1028E000FFF75AFF3368054630B1FF225A620423CE
:1028F0007377002333771FE004F07F3020F0FE4031
:1029000018609A6822F480229A609968FA681143E4
:102910003A690A439A60DA6822F08002DA609B68BA
:102920009B060BD43046FFF71FFF38B13368FF22F8
:102930005A62042373773577012506E03368FF2256
:102940005A6201237377002333772846BDE8F0816C
:10295000037F012B2DE9F04106460F464FF002059B
:1029600058D00123037745774B78C8788D7891F854
:102970000080002A47D1DA0603D523F010020A327C
:102980004A70FFF767FF04467878FFF763FF074652
:102990002846FFF75FFF40EA483040EA044040EA3B
:1029A00007243368CA225A6253225A623046FFF71C
:1029B000F3FE3368054630B1FF225A620423737771
:1029C0000023337715E024F07F4020F0C0005860EA
:1029D000DA6822F08002DA609B689B060BD43046EE
:1029E000FFF7C2FE38B13368FF225A6204237377BF
:1029F000357701250EE03368FF225A620123737791
:102A00000023337706E01B0243EA0040284340EAF4
:102A10004834C6E72846BDE8F081030903EB830389
:102A200000F00F0000EB4300C0B27047036870B5C0
:102A30000C46996A616019691B68C3F30540C3F3CA
:102A4000062603F07F0503F48003C1F30E011B0C7F
:102A5000A16020706670A570E37052B9FFF7DDFFCA
:102A600020703046FFF7D9FF60702846FFF7D5FF8A
:102A7000A070002070BD03685B6870B5C3F30740A9
:102A8000C3F3042603F03F05C3F342330C46C8707A
:102A90004E708D700B7052B9FFF7BFFFE07030467B
:102AA000FFF7BBFF60702846FFF7B7FFA07000205C
:102AB00070BD0368503343F82120704703685033DA
:102AC00053F82100704700002DE9F8430668336988
:102AD000054623F44052C3682969C0691343AA68B4
:102AE0003361F36811436A6923F416430A430243CE
:102AF00023F00C031343F360736923F44072AB6952
:102B0000B0F5004F43EA020373613F4B36D19E425A
:102B100003D003F580639E4216D1FFF7B5FC6F68C2
:102B2000192460437F00B0FBF7F7FFF7ADFC6A683C
:102B30004FF064086043B7FBF8F752003F01B0FB69
:102B4000F2F9FFF7A1FC15E0FFF788FC6F68192484
:102B500060437F00B0FBF7F7FFF780FC6A684FF037
:102B600064086043B7FBF8F752003F01B0FBF2F98D
:102B7000FFF774FC44436868400034E09E4202D092
:102B8000224B9E4216D1FFF77FFC6F6819246043E9
:102B9000BF00B0FBF7F7FFF777FC6A684FF06408F7
:102BA0006043B7FBF8F792003F01B0FBF2F9FFF783
:102BB0006BFC15E0FFF752FC6F6819246043BF00FF
:102BC000B0FBF7F7FFF74AFC6A684FF06408604310
:102BD000B7FBF8F792003F01B0FBF2F9FFF73EFCBC
:102BE000444368688000B4FBF0F0B0FBF8F008FBE9
:102BF000109212013232B2FBF8F303F00F033B43A1
:102C0000B360BDE8F88300BF00100140001401402C
:102C1000F8B504460E461546FDF7F8FB0746226850
:102C200013683340B34221D06B1CF9D0C5B9236877
:102C3000DA6822F08002DA60DA6822F02002DA60D4
:102C4000DA6822F48072DA605A6922F001025A616D
:102C5000012384F83930002384F838300320F8BD8C
:102C6000FDF7D4FBC01BA842D9D9E0E70020F8BD8E
:102C700010B5044630B390F8393003F0FF021BB9A9
:102C800080F8382002F00AFE2268022384F83930E6
:102C9000D36823F40053D3602046FFF715FF236861
:102CA0001A6922F490421A615A6922F02A025A6182
:102CB000DA6842F40052DA6000200123E06384F80D
:102CC000393010BD012010BD70B50D4690F8391097
:102CD000C9B2012904461E4601D022294ED1002D39
:102CE0004AD0002A48D094F83830012B46D001232E
:102CF00084F838300023E36394F83930A284222B1F
:102D00000CBF3223122384F83930E284E28C02B300
:102D1000A368013AB3F5805FE28420464FF080015A
:102D200032460DD1FFF774FF08B1032070BD2B8828
:102D30002268C3F308035360236943B90235E5E70A
:102D4000FFF766FF0028F0D123682A785A60013522
:102D5000DCE7204640213246FFF75AFF0028E4D145
:102D600094F83930322B0CBF2223012384F83930F8
:102D7000002384F8383070BD012070BD022070BD82
:102D80007047704770471FB503681968DA68C9074C
:102D900004460AD5D00508D51A6800925A680092F0
:102DA000009AE26B42F00102E26319685A698907EE
:102DB0000AD5D00708D51A6801925A680192019A7B
:102DC000E26B42F00402E26319685A6949070AD5C6
:102DD000D00708D51A6802925A680292029AE26BEA
:102DE00042F00202E26319685A6909070AD5D0075E
:102DF00008D51A6803925A680392039AE26B42F06C
:102E00000802E2631968DA68890642D5900640D55F
:102E100094F8392002F0EF02222A3AD1A2682169FF
:102E2000B2F5805FA26A0BD15B6821B9C3F30803D6
:102E300022F8023B02E0DBB222F8013BA2620AE088
:102E400019B9511CA1625B6804E05B68511CA16266
:102E500003F07F031370E38D013B9BB2E385C3B99D
:102E60002368DA6822F02002DA6094F83920322AE6
:102E70001FBFDA6822F48072DA605A691BBF22F041
:102E800001025A611223012384F839302046FFF7EA
:102E900078FF23681968DA68090628D5100626D550
:102EA00094F8392002F0DF02122A20D1A268B2F58C
:102EB000805F226A0AD11188C1F308015960216933
:102EC00009B9023200E00132226203E0511C2162A2
:102ED00012785A60E28C013A92B2E2843AB9DA6826
:102EE00022F08002DA60DA6842F04002DA601968A3
:102EF000DA68490619D5520617D5DA6822F0400279
:102F0000DA6094F83920322A1FBFDA6822F480721E
:102F1000DA605A691BBF22F001025A6122230123A1
:102F200084F839302046FFF72BFFE36B2BB10123E8
:102F300084F839302046FFF725FF04B010BD0000AB
:102F40000A4B013B01D1032070470269002AF8DADD
:102F50000369064A43F001030361013AF3D00369B0
:102F600013F00103F9D11846704700BF410D03006B
:102F700084B038B505AD85E80E000A9B012B0446E8
:102F800017D1836B23F480338363C36823F48403F2
:102F900023F04003C360C36823F44013C360109B55
:102FA000012B02BFC36843F48013C360FFF7C8FF5F
:102FB00008E0C36843F04003C360FFF7C1FF4FF46C
:102FC0008033A363089B012B01BFA36843F00C036C
:102FD000A360A36804BF43F02003A360BDE83840AA
:102FE000002004B07047836843F001038360002031
:102FF0007047836823F0010383600020704708B5A1
:10300000C368012923F0C043C36004D1C36843F0FF
:103010000053C36004E019B9C36843F08043C36040
:103020003220FDF7F9F9002008BD0000890141F0C8
:103030002001064A0161013A05D0036913F020031B
:10304000F9D1184670470320704700BF410D0300B7
:103050001023064A0361013A05D0036913F01003F7
:10306000F9D1184670470320704700BF410D030097
:10307000D0F800381943C0F800180020704700004D
:1030800084B02DE9F041044607A880E80E00A36B48
:10309000109E0A9F43F400238846A3631EB9A36BC6
:1030A00043F40013A3630023C4F8003ED4F80038AF
:1030B000C4F800380C9B012B04F5006506D1099972
:1030C000204629B11946FFF7D3FF03E0204603212C
:1030D000FFF7CEFF10212046FFF7A8FF2046FFF79D
:1030E000B7FF00234FF0FF322B616B61AA61EB61E8
:1030F00004F5106243450FD011680029B8BF4FF0A6
:1031000090404FF00001ACBF116010601161FF21D1
:10311000916001332032EDE704F53063002242452F
:103120000FD019680029B8BF4FF090404FF0000150
:10313000ACBF196018601961FF219960013220331A
:10314000EDE72B69012F23F480732B6108D1154B18
:103150002B632B6B43F4803343F003032B632B6B04
:103160000023A3616FF0804363611FB9A36943F03B
:103170001003A361A2690C4B1343A3610D9B1BB108
:10318000A36943F00803A361012E01BFA36943F0C3
:10319000804343F00403A361BDE8F041002004B084
:1031A000704700BF0001800000383C80D0F808382C
:1031B00000F5006213F0060012D0936803F00603D6
:1031C000022B0CD0936803F00603062B07D09368FC
:1031D00003F00603042B14BF0020022070470320D5
:1031E000704770B54B780D78D0F81C4800F5006238
:1031F000012B1BD1AB409BB22343D3610E784FF41C
:10320000106404EB461423581A0429D422588B68FE
:1032100042F0805545F40045C3F30A02CB782A43B7
:1032200042EA834343EA8653235019E04FF4803344
:10323000AB402343D3610A784FF4306303EB42126F
:1032400013581B040CD4135843F080548B68C9786E
:1032500044F40044C3F30A03234343EA8143135075
:10326000002070BD4A78012A70B500F500630E7821
:1032700017D1DD6B02FA06F4A4B225EA0404DC637C
:103280000D78DC69AA4092B224EA0202DA610A7877
:103290004FF4106303EB42131A5822F400421A5001
:1032A00015E0DC6B012202FA06F524EA0544DC6332
:1032B0000D78DC69AA4024EA0242DA610A784FF408
:1032C000306303EB42131A5822F400421A500020D4
:1032D00070BD4B78012BF0B50B784D694FF0200491
:1032E00060D14FF4106614FB03630344B5B91D6944
:1032F00025F0FF5525F4C0151D610B7814FB036301
:1033000003441D6945F400251D610B7814FB03641B
:1033100004442369DB0CDB04236126E01F69FF0CF6
:10332000FF041F610B7814FB03640444236923F03A
:10333000FF5323F4C01323618B689D420D7888BF2F
:103340004B6120244FF4106314FB053505442E69AE
:1033500046F400262E610D7814FB053303444C69B6
:103360001D69C4F312042C431C61012A0B7805D19A
:1033700000EB43130A69C3F8142909E04A693AB11A
:10338000D0F83428012404FA03F31343C0F8343886
:103390000A784FF4106303EB4213C25842F0044220
:1033A000C2503CE04FF4306714FB037303441E69C2
:1033B000F60CF6041E610B7814FB037303441E69BC
:1033C00026F0FF5626F4C0161E618E6805B14E61C8
:1033D0000B784FF4306514FB03530344C6F3120615
:1033E0001F6947F400271F610B7814FB0354044442
:1033F000012A236946EA0306266101BF0B782022D1
:1034000012FB03531B1804BFCA685A610A784FF4B1
:10341000306303EB4213C25842F00442C250002012
:10342000F0BD10B59DF8084064B9033300EB0230DD
:103430009B1000F580509C4204D051F8242002607B
:103440000134F8E7002010BD2DE9F3414B780C78EA
:10345000012B4B6940F09C8020254FF4106615FB32
:10346000046404442769ABB927F0FF5727F4C01759
:1034700027610C7815FB04640444276947F400278E
:1034800027610C7815FB046505442C69E40CE40401
:103490002C613FE0FF0CFF0427610C78D1F808C0D5
:1034A00015FB04640444276927F0FF5727F4C0176D
:1034B00027610F7815FB0767074403EB0C04013CF9
:1034C000B4FBFCF4DFF8B4C1D7F810E0E40404EA7C
:1034D0000C0C4CEA0E043C610C7815FB04640444AB
:1034E000C3F3120E27694EEA07072761CC78012C37
:1034F00040F0BB800C7815FB04640444276927F076
:10350000C04727610C7815FB046505442C6944F01D
:1035100000542C61012A06D10C780D6900EB44148B
:10352000C4F814590BE0CC78012C08D03BB10F78CB
:10353000D0F834580124BC402C43C0F83448CC782F
:10354000012C11D1D0F8084814F4807F0C784FF08A
:1035500020054FF4106615FB046425580CBF45F098
:10356000005545F0805525500D784FF4106404EB5C
:103570004514055945F004450551CC78012C78D106
:103580000C780092C96822469BB2FFF74AFF70E0B0
:1035900020264FF4306716FB04740444D1F808E089
:1035A0002569ED0CED0425610C7816FB04740444C8
:1035B000256925F0FF5525F4C01525610D7816FB0A
:1035C00005757BB90544CEF3120E2B694EEA030351
:1035D0002B610C7816FB04740619336943F400233D
:1035E00033611BE044197344013BDFF890C0B3FB27
:1035F000FEF39BB225694FEAC34808EA0C0C4CEA7B
:10360000050525610C7816FB047404440EFB03FECB
:103610002569CEF3120E4EEA05032361012A01BF8C
:103620000B78CA6800EB4313C3F8142BCB78012B3B
:1036300011D1D0F8083813F4807F0B784FF02002B6
:103640004FF4306412FB0343C2580CBF42F00052E7
:1036500042F08052C2500A784FF4306303EB4213B9
:10366000C25842F00442C25003E0012A7FF45EAF28
:1036700052E7002002B0BDE8F08100BF0000F81F53
:1036800010B5033292100023934206D000F5805407
:10369000246841F823400133F6E701EB830010BDB5
:1036A0004B78012B10B54FF020020C7814D14FF459
:1036B000106312FB0433C258002AA2BFC25822F082
:1036C0008042C2500A784FF4106303EB4213C25891
:1036D00042F40012C25013E04FF4306312FB043383
:1036E000C258002AA2BFC25822F08042C2500A78B3
:1036F0004FF4306303EB4213C25842F40012C2503D
:10370000002010BD4B78012B0B7830B54FF0200214
:103710000CBF4FF410654FF4306512FB03531C5877
:1037200024F400141C50CB78023B012B9FBF0B7874
:1037300012FB0352135843F0805398BF13500020DC
:1037400030BDD0F8003823F4FE63C0F80038D0F85C
:103750000038090101F4FE610B43C0F80038002075
:10376000704708B5D0F8043823F00203C0F80438D5
:103770000320FCF751FE002008BD08B5D0F804383E
:1037800043F00203C0F804380320FCF745FE002094
:1037900008BD4369806918407047D0F8183800F5B3
:1037A0000060C0691840000C704700F50063D0F855
:1037B0001808DB69184080B2704700EB411100F532
:1037C0000060D1F8083B40691840704710B5D0F848
:1037D0001048D0F8343800EB4110CB40DB01D0F872
:1037E0000809DBB22343184010BD406900F0010016
:1037F0007047D0F8003923F4FF6323F00703C0F8C3
:10380000003900F500639A6802F00602042A02BF3C
:10381000D0F8002942F00302C0F800295A6842F4A7
:1038200080725A600020704710B50024C0F8104B19
:10383000D0F8104B44F40024C0F8104BD0F8104BD3
:1038400044F01804C0F8104BD0F8104B012900F5D3
:10385000306344F0C04408BF4FF08023C0F8104BE1
:1038600004BFC0F8142BC0F8003B002010BD0000BE
:103870000C4B1A68002142F001021A6099601A6824
:1038800022F0847222F480321A60074A5A601A6861
:1038900022F480221A60D960044B4FF000629A60D3
:1038A000704700BF003802401030002400ED00E0F7
:1038B000174A1849936803F00C03042B03D0082B14
:1038C00003D0154B18E0154B16E05068536810F400
:1038D000800F03F03F03506814BF104A0E4AB2FB3A
:1038E000F3F30B4A5268C2F30142C0F3881001326D
:1038F00043435200B3FBF2F30B60054B084A9B684D
:10390000C3F30313D25C0B68D3400B60704700BF56
:10391000003802400C0000200024F40000127A005D
:10392000007C0008FEE770B50123446803FA01F546
:1039300024EA050444600668994003248C4026EA82
:1039400004060660122A23D8DFE802F00A0C101FD2
:10395000222222222222222222222222220E160089
:10396000036807E0026803E0026807E002680223D8
:103970008B401343036070BD026802238B401343E6
:10398000036043682B43436070BD03681C430460BD
:1039900070BDC36810B5490003248C4023EA0403BA
:1039A000012AC36003D007D3022A00D010BDC36828
:1039B0008A401A43C26010BDC368C36010BD8368EB
:1039C000490010B503248C4023EA04038360836814
:1039D0008A401343836010BD38B505460C4601216B
:1039E00000F048F9284621460122FFF79CFF2846AF
:1039F00021460022FFF7CDFF284621460322BDE8DD
:103A00003840FFF7DCBF426801238B4022EA030302
:103A100043600268490003238B4022EA03030360EA
:103A20007047C368490003228A4023EA0203C36047
:103A300070478368490003228A4023EA02038360B7
:103A40007047072988BF08394FF00F0395BF026AF6
:103A5000426A8900890095BF8B408B4022EA0303AC
:103A600022EA030394BF03624362704738B50546F8
:103A70000C46FFF7C8FF28462146FFF7D2FF28462D
:103A80002146FFF7D6FF28462146BDE83840FFF71C
:103A9000D8BF01231AB142698B40134303E0426946
:103AA0008B4022EA03034361704700002C4B98428D
:103AB00004D12C4A136B43F001034EE02A4B984289
:103AC00004D1284A136B43F0020346E0274B984287
:103AD00004D1244A136B43F004033EE0244B984284
:103AE00004D1204A136B43F0080336E0214B98427F
:103AF00004D11C4A136B43F010032EE01E4B984276
:103B000004D1184A136B43F0200326E01B4B984264
:103B100004D1144A136B43F040031EE0184B984243
:103B200004D1104A136B43F0800316E0154B984202
:103B300004D10C4A136B43F480730EE0124B98428D
:103B400004D1084A136B43F4007306E00F4B98420C
:103B500004D1044A136B43F480631363704700BFBE
:103B60000000024000380240000402400008024009
:103B7000000C0240001002400014024000180240F5
:103B8000001C0240002002400024024000280240A5
:103B90002C4B984204D12C4A136B23F001034EE0C6
:103BA0002A4B984204D1284A136B23F0020346E0C3
:103BB000274B984204D1244A136B23F004033EE0C0
:103BC000244B984204D1204A136B23F0080336E0BB
:103BD000214B984204D11C4A136B23F010032EE0B2
:103BE0001E4B984204D1184A136B23F0200326E0A1
:103BF0001B4B984204D1144A136B23F040031EE080
:103C0000184B984204D1104A136B23F0800316E03E
:103C1000154B984204D10C4A136B23F480730EE0C9
:103C2000124B984204D1084A136B23F4007306E048
:103C30000F4B984204D1044A136B23F4806313633F
:103C4000704700BF000002400038024000040240FC
:103C500000080240000C0240001002400014024024
:103C600000180240001C02400020024000240240D4
:103C70000028024009B1FFF719BFFFF789BF000014
:103C8000094B10B5D3E9002304460807090902F0DF
:103C9000D1FF064AC0F30D03C0F38D302343204308
:103CA0001380508010BD00BF180000209E2300200C
:103CB00038B5074D074C28602170FFF78DFE0022B4
:103CC00028682178FFF7E5FE034B01221A7038BD02
:103CD000A4230020BA230020B923002038B5074DC3
:103CE000074C28602170FFF777FE002228682178B2
:103CF000FFF7CFFE034B01221A7038BD942300203A
:103D0000902300209C23002038B5074D074C2860E5
:103D10002170FFF761FE012228682178FFF7B9FEC4
:103D2000034B01221A7038BD98230020C8230020BD
:103D3000C923002010B5064C23783BB1054B186809
:103D4000054B1978FFF792FE0023237010BD00BFCA
:103D5000B9230020A4230020BA23002010B5064C6C
:103D600023783BB1054B1868054B1978FFF77EFEA9
:103D70000023237010BD00BF9C230020942300204B
:103D80009023002010B5064C23783BB1054B1868F2
:103D9000054B1978FFF76AFE0023237010BD00BFA2
:103DA000C923002098230020C823002008B5FFF76E
:103DB000D5FFFFF7BFFFFFF7E5FF024B00221A70A8
:103DC00008BD00BFB82300202DE9F0471C4D1D4C55
:103DD0001D4F1E4E2178012281462868FFF759FEAB
:103DE000386831780022FFF754FE0120FCF714FBFD
:103DF000B8464FF00F0A37460126B9F8003006FAE8
:103E00000AF21A42124B1868124B14BF32460022B3
:103E10001978FFF73EFE286821783246FFF739FE11
:103E2000286821780022FFF734FE1AF1FF3AE3D226
:103E3000D8F8000039783246BDE8F047FFF729BED0
:103E4000942300209023002098230020C8230020E2
:103E5000A4230020BA230020074B1B7810B504468A
:103E60004BB10648FFF7B0FF022C04D10448BDE86F
:103E70001040FFF7A9BF10BDB82300209E230020EB
:103E8000A023002008B505480549022203F0BAF92D
:103E90000120BDE80840FFF7DFBF00BF9E230020E0
:103EA000BC230020F8B50546FFF7ECFFB5F5804FC1
:103EB000104B114C0AD1D4E90067D3E9002300214B
:103EC0008F4208BF96420FD328460AE0D4E9004546
:103ED000D3E9022300218D4208BF944204D34FF45A
:103EE00000401146FFF7CCFE0220BDE8F840FFF786
:103EF000B3BF00BFA82300201000002038B504463F
:103F0000FFF7C0FFB4F5404F1B4B1C4C17D11D6889
:103F10001B49284602F064FE00B1194D1949284694
:103F200002F0A2FC02F066FE4FF4B473B0FBF3F0B3
:103F3000C0F30B006FEA80406FEA904016E05D68C6
:103F40000F49284602F04CFE00B10D4D0D492846A0
:103F500002F08AFC02F04EFE4FF4B473B0FBF3F0B3
:103F6000C0F30B006FEAC0406FEAD0402080012010
:103F7000BDE83840FFF770BFC02300209E2300201B
:103F80000000B44300F07F45114B1B7810B5F3B12E
:103F9000104B1B78DBB1104B1B78C3B10F4B104C8F
:103FA00001221A704FF404532380FFF76BFF4FF484
:103FB0008040FFF777FF4FF44040FFF79FFF2388D3
:103FC00023F480732380BDE81040FFF75BBF10BD72
:103FD000B92300209C230020C9230020B8230020FF
:103FE000BC230020B0F5804F30B51D461446044B6D
:103FF00002D1C3E9004530BDC3E9024530BD00BF71
:10400000A8230020D0B50E4C002304F80F3F06462D
:104010000F46304639460A22002302F00BFE3032AA
:1040200004F8012D3046394600230A2202F002FE30
:1040300006460F4656EA0703EBD12046D0BD00BF27
:10404000CA23002070B504468AB050B92A4B1A6BB7
:1040500042F040021A631B6B03F040030093009B85
:1040600032E001280AD1244B1A6B42F040021A6355
:104070001B6B03F040030193019B25E002280AD14A
:104080001D4B1A6B42F020021A631B6B03F02003D6
:104090000293029B18E003280AD1174B1A6B42F0D7
:1040A00020021A631B6B03F020030393039B0BE0B6
:1040B000042809D1104B1A6B42F040021A631B6BA3
:1040C00003F040030493049B0C4B0D4E33F8145043
:1040D00056F82400059501230693079305A90223AA
:1040E0000893FDF7DDF956F8240029460022FDF774
:1040F000C1FA0AB070BD00BF00380240107C000851
:1041000020000020044A034652F82000034A32F8F7
:1041100013100122FDF7AEBA20000020107C000829
:10412000044A034652F82000034A32F813100022D2
:10413000FDF7A0BA20000020107C000808B580B16F
:10414000D0F8143213B10023C0F8143209B1C0F80A
:104150001012012380F8FC31027001F00DFE0020E6
:1041600008BD022008BD19B1C0F814120020704724
:104170000220704708B501F033FE002008BD08B5E5
:10418000D0F814320BB9022008BD1B6898470028EC
:10419000F9D108BD08B5D0F814325B689847002003
:1041A00008BD38B5044600F50275284600F0F2F85F
:1041B000012394F80812C4F8F431B4F80E32C4F8AC
:1041C000F83101F01F03012B0CD006D3022B0ED1C6
:1041D0002046294600F022FA0EE02046294600F04B
:1041E000F9F809E02046294600F000FA04E02046EC
:1041F00001F0800101F00CFE002038BD10B504462E
:1042000009BBD0F8F431032B26D1D0F80C11D0F82B
:10421000103199420AD9C91A8B4228BF0B46C0F8FF
:104220000C1111469AB200F0A0FA15E0D0F8143241
:104230001B6923B190F8FC21032A00D1984720463E
:1042400000F09CFA08E0D0F814329B6923B190F892
:10425000FC21032A00D19847002010BD70B5044608
:104260000E4600293DD1D0F8F431022B31D1C56979
:10427000036A9D4208D9EB1A1146C3619AB200F055
:104280005BFA2046314612E08269B2FBF3F503FB8C
:1042900015258DB99A420FD3D0F8F8319A420BD236
:1042A0002A4600F049FAC4F8F851204629460A4641
:1042B0000B4601F0DCFD0CE0D4F81432DB682BB1C6
:1042C00094F8FC21032A01D120469847204600F0AB
:1042D00060FA94F80032012B0CD1002384F80032EC
:1042E00008E0D0F814325B6923B190F8FC21032A6E
:1042F00000D19847002070BD38B5002104460A4619
:104300004025402301F073FD2B46C4F81051204690
:104310008021002201F06BFD012384F8FC31D4F8E8
:10432000183225622BB1D4F8143221795B6820460B
:104330009847002038BD01740020704790F8FC3188
:1043400080F8FD31042380F8FC310020704790F89C
:10435000FD3180F8FC310020704708B590F8FC2151
:10436000032A04D1D0F81432DB6903B19847002046
:1043700008BD00207047002070470020704708B536
:10438000012280F8FC21D0F814220179526890476C
:10439000002008BD0B7803704B784370CA788B7887
:1043A00003EB022343804A790B7903EB02238380DA
:1043B000CA798B7903EB0223C380704710B5802143
:1043C000044601F025FD20460021BDE8104001F023
:1043D0001FBD000073B54B7804460D46092B00F253
:1043E000FC80DFE813F0CE00E500FA00E100FA00FF
:1043F00077000A00FA00BD0093004B881A0A013AC0
:10440000062A00F2EA80DFE812F007000B0018002D
:10441000E800E8003D004900D0F810321B682CE0AD
:10442000027CD0F814320AB99B6A00E0DB6A0DF115
:1044300006009847022301463CE0DBB2052B00F260
:10444000CC80DFE803F003070B0F1317D0F810320E
:104450005B6812E0D0F810329B680EE0D0F81032A2
:10446000DB680AE0D0F810321B6906E0D0F81032A1
:104470005B6902E0D0F810329B69207C0DF10601E7
:10448000984709E0037C002B40F0A780D0F8143255
:104490000DF106005B6B984701460CE0037C002B96
:1044A00040F09B80D0F814320DF106001B6B98474A
:1044B000072301464B70BDF80630002B00F09180B9
:1044C000EA88002A00F08D809A4228BF1A46ADF88B
:1044D000062054E08B88002B7FD1CB88002B7CD129
:1044E00090F8FC318E78032B06F07F0675D080F8AB
:1044F000FE61314601F0ADFC204600F03FF90EB1FF
:10450000022300E0012384F8FC316AE08978364E0A
:104510000129317061D890F8FC31022B02D0032BB5
:1045200008D05AE0002954D001210323416080F8CB
:10453000FC310FE031B9022380F8FC314160FFF714
:1045400029FE46E04168012943D0C9B2FFF722FEA7
:10455000317861602046FFF712FE022839D13CE035
:10456000CA88012A39D190F8FC31022B03D0032BE1
:1045700033D1011D15E00146002341F8083F2046D4
:104580000FE090F8FC31023B012B26D80123C360D9
:10459000D0F804320BB10323C360204604F10C01B0
:1045A000022200F0BBF81CE04B88012B19D108E077
:1045B00090F8FC31023B012B0FD84B88012B10D116
:1045C0000023C4F80432D4F8143220469B682946EC
:1045D0009847204600F0D2F803E020462946FFF72E
:1045E000EDFE002002B070BDDA23002038B590F84F
:1045F000FC31032B04460D460CD10B79012B09D855
:10460000D0F814329B689847EB882BB9204600F00D
:10461000B5F801E0FFF7D2FE002038BD70B50A788A
:104620008E8802F06002202A04460D46F3B204D1BF
:10463000D0F814329B68984751E04A78012A10D08C
:1046400026D3032A4BD190F8FC21022A27D0032A33
:1046500043D14A8892B95E0610D0194601F0D8FBC2
:104660000CE090F8FC21022A19D0032A35D14A889F
:10467000AABB590608D0194601F0D1FBD4F8143270
:1046800020469B6829469847204600F077F826E0A8
:1046900090F8FC21022A02D0032A06D01DE05A0617
:1046A0001DD0194601F0B4FB19E003F07F0516F0A8
:1046B000800F00EB0515194614BF143505F58275FA
:1046C00001F0B4FB10B101232B6000E0286020460C
:1046D0002946022200F022F801E0FFF76FFE0020D9
:1046E00070BD30B5C8B10446231A14F8015BDBB2C3
:1046F000002DF9D15B00023313800B7003234B7044
:104700000138022310F8014F3CB15A1CD2B2CC54EC
:1047100002330024DBB28C54F4E730BD38B51346C5
:104720000D460222C0F8F4218361C36100212A46AC
:1047300001F096FB002038BD10B50C461346002151
:10474000224601F08DFB002010BD38B513460D4602
:104750000322C0F8F421C0F80831C0F80C31002160
:104760002A4601F084FB002038BD10B50C461346E4
:104770000021224601F07BFB002010BD08B500217E
:104780000423C0F8F4310A460B4601F069FB00200F
:1047900008BD08B500210523C0F8F4310A460B46D0
:1047A00001F065FB002008BDD0F818321BB10020D5
:1047B000C3F81402704702207047D0F81C3210B5BD
:1047C000D0F818425BB194F80002FF2807D09B682C
:1047D00094F8012221469847FF2384F800320020F4
:1047E00010BD0000432303800048704734000020C0
:1047F00043230380004870470001002043230380C7
:1048000000487047BC0000200A230380004870471E
:10481000B000002038B50546D0F8184201F02EFB54
:10482000D5F81832C4F80C024BB1D5F81C32D4F8C4
:104830000402DB6804F503719847002038BD0220AC
:1048400038BD0000F8B50F78D0F8185217F06003A3
:1048500006460C4620D0202B25D1CA884B78AAB119
:10486000390609D5D0F81C1218468F682946B84772
:1048700030462946E28814E085F80032E38885F85E
:1048800001322946E288FFF760FF0CE0D0F81C02F5
:1048900084681846A04706E04B780A2B03D10349E9
:1048A0000122FFF73BFF0020F8BD00BFDB23002003
:1048B00010B58121044601F0A4FA0121204601F03F
:1048C000A0FA2046822101F09CFAD4F8183253B1A4
:1048D000D4F81C325B689847D4F8180202F08AFCBE
:1048E0000023C4F81832002010BDF8B5037C04463C
:1048F000812102224BB94FF4007301F078FA20466F
:10490000012102224FF4007306E0402301F06FFA08
:10491000204601210222402301F069FA822103226C
:104920000823204601F063FA4FF4077002F05AFCA6
:104930000646C4F81802C8B1D4F81C321B68984760
:10494000277CD6F804220025C6F814522046C6F863
:10495000185201212FB94FF4007301F088FA38463C
:10496000F8BD402301F083FA2846F8BD0120F8BDC8
:1049700019B1C0F81C120020704702207047D0F80F
:1049800018320020C3F80812C3F810227047D0F87C
:1049900018320020C3F80412704738B5D0F8184216
:1049A00074B1D4F81452012365B9C4F814328121CA
:1049B000D4F80822B4F8103201F052FA284638BD73
:1049C000022038BD184638BDD0F8183210B563B192
:1049D000047CD3F80422012114B94FF4007300E0E1
:1049E000402301F044FA002010BD022010BD000059
:1049F000094B0A4810B500241C60094B1C60094B88
:104A000006221A7021464FF4806202F006FC20460E
:104A1000BDE81040FFF784BBE8230020EE23002010
:104A2000E02300205001002010B5044602F008FDEC
:104A300001462046BDE8104001F0C0B810B5084C52
:104A40000E212046FFF734F920460C21FFF746F9E6
:104A500020460B21FFF758F9BDE81040FFF794BA44
:104A600000100240042801D1FFF7A0B970470000F0
:104A700038B5054C05462078FFF7F4FF042D01D129
:104A8000FFF7DCFF257038BD58010020014B187876
:104A9000FFF7EEBF5801002008B5084B1B78042B28
:104AA00002460AD14FF480400023FFF79BFA4FF4EF
:104AB0008040BDE80840FFF7F5B908BD5801002067
:104AC000044B1B78443BDBB2132B9ABF024AD05CE9
:104AD00006207047EE2300201A7C000807B500234B
:104AE00006498DF804300422684602F08BFB6846C4
:104AF00002F06EFB80B203B05DF804FBEF230020F0
:104B000000B50628B1B05FD015D8032835D008D835
:104B100001282DD0022870D10AA89621394A3A4B93
:104B200050E004284AD0052867D1384B354A1B8805
:104B30000AA896215CE040F2EA3398424ED00BD8A6
:104B4000B0F57A7F45D040F2E933984255D10AA8B2
:104B500096212F4A2F4B4AE040F2EB33984242D045
:104B6000B0F57B7F49D10AA89621294A2A4B3EE01D
:104B70000AA89621264A294B39E005A9002228488F
:104B8000FDF754FF04A900222548FDF774FF9DF8A6
:104B9000161000919DF8121001919DF811100291CC
:104BA0009DF813109DF814209DF8153001F5FA6159
:104BB00003910AA81B4902F015FC1BE0114A1A4B8D
:104BC0000AA896211B7813E00AA896210D4A174BD4
:104BD000F8E70AA896210E4A154B08E00AA8962184
:104BE0000B4A144B03E00A4A134B0AA896211B6890
:104BF00002F0C6FB0AA8FFF717FFFFF7F9FE31B076
:104C00005DF804FB897C0008480100205A0100205F
:104C10007F7C00084C01002054010020440100204A
:104C2000942B00202E7C000858010020E423002053
:104C3000001200200412002008120020062822D0B2
:104C40000AD803281FD003D8012819D0022815E05C
:104C5000042818D0052811E040F2EA33984212D017
:104C600006D8B0F57A7F0ED040F2E933984205E0DD
:104C700040F2EB33984206D0B0F57B7F03D006E0DC
:104C8000044B18607047034B01221A607047FFF70E
:104C9000AFBE00BFE8230020F7B5224C06460D4604
:104CA0000222611D01A802F0ADFA002701A88DF8CB
:104CB000067002F08DFA04F108013070022201A89A
:104CC00002F0A0FA01A802F083FA04F10B0170705F
:104CD000022201A802F096FA01A802F079FA04F182
:104CE0000E01B070022201A802F08CFA01A802F0B5
:104CF0006FFA04F11101A870022201A802F082FAF1
:104D000001A802F065FA04F116016870022201A8F8
:104D100002F078FA01A88DF8067002F059FAE870EE
:104D200003B0F0BDEE23002040F68A4340F68942EE
:104D300010B5904288BF18460C4601F0D5FA10A372
:104D4000D3E9002301F036FB0FA3D3E9002301F0E0
:104D50005BFC01F069FD012C83B203D100210C48FA
:104D60000A4604E0022C08D1094810210022C3F3AE
:104D70000B03BDE81040FBF7DDBD10BDAFF30080B5
:104D80000000000000FEAF40000000000014A94039
:104D9000702B002000B50628B1B074D015D80328B8
:104DA00041D004D801282DD0022833D080E0042837
:104DB00064D005287CD1404802F00AFA3F4B80B20B
:104DC00001211880FFF7B0FF72E040F2EA33984209
:104DD00064D00BD8B0F57A7F5BD040F2E9339842CB
:104DE00066D1354802F0F4F9354B60E040F2EB3320
:104DF000984258D0B0F57B7F5AD12F4802F0E8F99D
:104E0000304B54E02C4802F0E3F92F4B1860FFF7C9
:104E100043FE4DE0284802F0DBF902282B4B36D048
:104E200001221A7044E005A804A9FFF735FF9DF898
:104E3000161000919DF8121001919DF81110029129
:104E40009DF813109DF815309DF8142001F5FA61B6
:104E500003910AA81E4902F0C5FA05A900221D48BF
:104E6000FDF703FD04A900221A48FDF771FD19485A
:104E7000002143F2F222FDF71CFE19E00E4802F079
:104E8000A7F9154B03E00C4802F0A2F9134B187078
:104E90000EE0094802F09CF9114B08E0064802F0C8
:104EA00097F9104B03E0044802F092F90E4B18609A
:104EB00031B05DF804FB00BFF32300205A0100204D
:104EC0004C01002054010020440100204801002032
:104ED0002E7C0008942B002058010020E4230020A1
:104EE000001200200412002008120020022803D122
:104EF000024B1888FFF74EBF704700BFEC2300201D
:104F0000012838B504461B4D0AD11B4B1B4A1870AB
:104F10000023287013801A4A1A4913600D2218E0E2
:104F200002280BD1144B184A1870012400232C704E
:104F300016491380124A0B6013600BE0032814D14A
:104F40000D4B134A18700124002310492C70138054
:104F500011220A604C608B60CB600E48FBF792FB1D
:104F60000C480D492246FBF701FB2B78002BFCD1A6
:104F700038BD00BFEE270020F2270020F8270020D0
:104F8000DC2300201C2B002006280020842B00207E
:104F9000F02700202C2B0020F4270020024B034890
:104FA00000221A70FBF736BBEE2700202C2B0020C6
:104FB00000B50128A7B005D0022810D1FFF7A0FF47
:104FC000094B02E0FFF79CFF084B1B88084A684624
:104FD00096219BB202F0D4F96846FFF725FDFFF752
:104FE00007FD27B05DF804FB06280020F827002005
:104FF000897C0008012804BF014B1870FFF7F8BC3A
:105000000428002001280ED002280CD1BFF34F8FB6
:105010000649074BCA6802F4E0621343CB60BFF352
:105020004F8F00BFFDE7FFF7E3BC00BF00ED00E0DE
:105030000400FA0538B50546FFF750FD164B1880F9
:10504000164B04461D700020013DFFF75BF8052D4F
:1050500021D8DFE805F003080D12171C2046BDE833
:105060003840FFF74DBD2046BDE83840FFF7E6BDAC
:10507000E0B2BDE83840FFF79BBFE0B2BDE8384082
:10508000FFF7B8BFE0B2BDE83840FFF7BBBFBDE8EF
:105090003840FFF7ADBC38BDEC23002050010020A4
:1050A000F8B51E4D1E4F064600200C46FFF72AF8A5
:1050B000286822463146384402F0A4F8286804449F
:1050C0002C60FFF7FDFC062802D1FFF791FC0BE0F6
:1050D000052C09D9601F3844124902F0A7F918B904
:1050E000BDE8F840FFF784BC2B68052B04D1FFF71F
:1050F000E7FCFFF79FFF0BE00B4B1B6843B13378D6
:105100000D2B05D1094B1878FFF7F0FEFFF770FC67
:105110000020BDE8F840FFF703B800BFE0230020FF
:10512000EE2300204E7C0008E823002050010020E0
:1051300010B504460320FFF7E3FE054B188883B241
:105140004FF49660604390FBF3F080B210BD00BF57
:10515000F0270020000000002DE9F843054608462E
:10516000FFF7E6FF40F65913984206D8B0F5847F62
:1051700006D9A0F5847084B203E040F6510400E043
:1051800000241B4B9D421B4B33F8140026D901F021
:105190009BF8194B06460F4633F8140001F094F8BB
:1051A00032463B4600F052FF804614480EA3D3E936
:1051B00000238946401B002101F03CFD01F0C4F8AA
:1051C00002460B464046494601F0F4F802460B46BB
:1051D0003046394600F03CFFBDE8F88301F074F832
:1051E000BDE8F883AFF3008000CA9A3B00000000DE
:1051F00000E1F5050C1200205C01002000CA9A3B7A
:105200002DE9F04F784F794A3B68794D794EADB032
:105210009621009306A8012302F0B2F806A8FFF732
:1052200003FC1420FBF7F8F82B68704A00939621D2
:10523000022306A802F0A4F806A8FFF7F5FB142045
:10524000FBF7EAF83368694A00939621032306A81E
:1052500002F096F806A8FFF7E7FB1420FBF7DCF84E
:105260003C682B681B1B3468B3FBF4F40134204604
:1052700001F02AF802460B4659A1D1E9000101F0DC
:10528000C3F901F0D1FA23460090962106A85A4AA4
:1052900002F076F84FF006083C68B2462F463B68AD
:1052A0009C42A8F1020500F28B802046FFF7F4FB38
:1052B000524BDFF864B11C60514B1868FBF7ACF837
:1052C0000120FFF71DFE9BF800204E4B08F1FF392F
:1052D0005AB9188880B2FFF72BFF962100904A4AEE
:1052E00006A82B4602F04CF822E02CAE002000214C
:1052F00066E928011988204689B2FFF72DFF32465A
:1053000000F03EFE02460B46DDE90401CDE9022332
:1053100001F062FADDE9022300901946104601F01F
:105320005BFA96210190394A06A82B4602F028F82C
:105330001420FBF771F806A8FFF776FB0220FFF7B1
:10534000DFFD9BF80020324B5AB9188880B2FFF776
:10535000EFFE962100902C4A06A84B4602F010F86A
:1053600022E02CAD0020002165E9280119882046A3
:1053700089B2FFF7F1FE2A4600F002FE02460B4614
:10538000DDE90401CDE9022301F026FADDE902237B
:1053900000901946104601F01FFA962101901B4A11
:1053A00006A84B4601F0ECFF1420FBF735F806A8E1
:1053B000FFF73AFBDAF8003008F102081C446EE708
:1053C0001420FBF729F89621124A2B4606A801F073
:1053D000D7FF06A8FFF728FB2DB0BDE8F08F00BF70
:1053E000000000000014A94000120020547C0008B6
:1053F0004C010020041200205E7C000844010020C3
:1054000008120020F8270020857C00088E7C000808
:10541000062800209C7C0008E423002010B50446E8
:1054200002F00EF8214682B232230448FDF74CFC0C
:1054300018B1BDE8104000F003B810BDB42800203A
:1054400008B50248FFF7EAFFFEE700BFA77C0008A7
:105450007FB515238DF8033010238DF8013006A990
:1054600021238DF80230032301F8183D1048012252
:10547000FDF76EFA08B1FFF7E3FF02238DF8050090
:105480008DF806008DF807000490059001A90848E2
:105490008DF804300122FDF7E8F901460028EAD131
:1054A000034843F2F222FDF704FB07B05DF804FB6A
:1054B000942B002008B50021FEF7A4FDBDE80840AC
:1054C000FFF7ACBFF0B5AB4BAB4DAFB000241C70D9
:1054D000FAF77EFF2B6C43F080532B642B6C03F0A8
:1054E00080530193019BA54B1A6842F440421A6015
:1054F0001B6803F440430293029B4FF480030F9315
:10550000082310934FF4A87301270226119308A8CB
:1055100007230E961296139308970997FCF7B8FC89
:105520000F2303934FF4A0530521069303A84FF4D0
:105530008053079304960594FCF732FE3846FEF735
:1055400081FD2046FEF77EFD3046FEF77BFD032001
:10555000FEF778FD0420FEF775FD2B6B88483B4372
:105560002B632B6B0A943B400393039B854B09935E
:1055700008A90897FBF794FF314622460620FBF75F
:1055800027F90620FBF754F97F48804984604FF4DF
:10559000613380E80A000C23C460046184614361C4
:1055A000C461FDF765FB064608B1FFF749FF78487F
:1055B000784CFFF733FF784B266184E848007F235F
:1055C000A3602046FF23E3606661A661FDF7FEF855
:1055D00001460028E9D12046FDF770FA43F2F22394
:1055E000984202D0FFF734FF12E0FFF731FF6B6FF4
:1055F0001A0102D56948FFF711FF5F4C636F5B0129
:1056000002D56748FFF70AFF636F43F08073636753
:105610006448654CFFF702FFFFF738FA6348FFF76D
:10562000FDFE002262496348FEF788FDFFF742FF56
:105630006148FFF7F3FE6148FFF7F0FE60495D48FF
:10564000FEF791FDFFF736FF5B48FFF7E7FE5D4889
:10565000FFF7E4FE5C495748FFF78AF9FFF72AFF96
:105660005548FFF7DBFE5948FFF7D8FE5148FEF7D3
:1056700081FDFFF71FFF5048FFF7D0FE544B23601A
:105680002046FBF7F7F8024600288ED1514D2860DE
:10569000686029462046FBF72EF9002885D1294667
:1056A00020461022FBF727F9054600287FF47DAF3E
:1056B0002A4629462B462046FBF73CF92046294638
:1056C000FBF7EBF8024600287FF46FAF204610216D
:1056D0001346FBF72FF920461021FBF7DEF80446AE
:1056E00000287FF462AF40F2DC500121FFF71CFB81
:1056F00040F6C4100221FFF717FB3748FFF78EFE74
:105700003648374B846080E81800012304618361C8
:10571000446284620463C462C4600362C36144611E
:10572000FAF788FE00287FF440AF2E4B2E4A1B88E4
:1057300096219BB208A801F023FE08A8FFF76EFE91
:105740002A4B2B4A1B8808A896219BB201F018FE11
:1057500008A8FFF763FE274C2378002BFBD001201D
:10576000FEF7D0FCFFF74CFD0120FEF7D9FC00232B
:105770002370F0E7182B0020003802400070004032
:105780000000024000001110B42800200010014069
:10579000BF7C0008942B002000280040DC7C00081F
:1057A000FF7C00081D7D0008702B0020367D00085E
:1057B000C8220020F4280020BC7C0008437D00089B
:1057C000780000205A7D0008B8220020707D000873
:1057D00000740040FC270020857D00082C2B002051
:1057E00000200140F42700209E7D0008F6270020BD
:1057F000AD7D000804280020012801BF034A13786A
:10580000DB43DBB208BF1370704700BF182B0020CA
:105810001A4A137830B5002B2FD0194B1B78012B67
:1058200004D1184D184C288880B20CE0022B04D10A
:10583000144D164C288880B205E0032B0AD1114D77
:10584000134C288880B2218889B2884282BF298877
:1058500089B221800F480168013B0131012B0160B1
:1058600003D80D4B1B68994200E00A2905D9002393
:10587000BDE830401370FFF791BB30BDEE2700202C
:10588000F2270020F4270020F82700200628002017
:10589000F0270020DC23002054010020354BF0B518
:1058A0001A6B354C42F001021A631A6B8BB002F08E
:1058B00001020192019A1A6B42F001021A631A6BFB
:1058C00002F001020292029A5A6C42F010025A64EB
:1058D0005A6C02F010020392039A1A6B42F480028F
:1058E0001A631B6B03F480030493049B4FF400734F
:1058F00006460122059307250223204605A90693A3
:105900000893079209954FF48067FBF7C9FD20467D
:1059100005A909950597FBF7C3FD05210022252060
:10592000FAF756FF2520FAF783FF144C1449276134
:1059300000254FF00062402384E82E000323A36279
:105940004FF40003E36220464FF4001323636561C4
:10595000A561E56125626562FAF7FEFF3463062101
:105960002A464620A663FAF733FF4620FAF760FF7F
:105970000BB0F0BD00380240000002405828002063
:10598000B864024010B598B00C23009301240023A2
:105990006846069305930294FCF77AFA20230C9349
:1059A0000CA84FF480731693FCF784FD014B1C6028
:1059B00018B010BD3C0E4742354BF0B51A6B42F0A3
:1059C00004021A631A6B8BB002F004020092009A70
:1059D0005A6C42F480725A645A6C02F480720192DA
:1059E000019A1A6B42F001021A631A6B02F001026B
:1059F0000292029A5A6C42F480725A645A6C02F40F
:105A000080720392039A1A6B42F480021A631B6B32
:105A100003F48003049300250646049B1D48079564
:105A20000823032405A9059306940127FBF738FDF5
:105A300005A9194806940597184C0795FBF730FD02
:105A4000174BA56084E828004FF4806323614FF46E
:105A5000805363614FF48043A3614FF48073E3612B
:105A600020464FF400332362E5606562A762E56279
:105A70002563FAF771FFB46329462A463820A663E6
:105A8000FAF7A6FE3820FAF7D3FE0BB0F0BD00BF40
:105A900000380240000802400000024008280020B0
:105AA00010640240144B70B51A6B144C42F00102A2
:105AB0001A631A6B88B002F001020192019A1A6C03
:105AC00042F000521A641B6C03F000530293029BD5
:105AD000032610230025204603A903930496059569
